:020000040800F2
:1000000000100020591D00081D1D0008271D0008B4
:1000100000000000000000000000000000000000E0
:100020000000000000000000000000002D1D00087E
:100030000000000000000000371D0008411D0008FE
:10004000A91D000800000000A91D0008A91D000846
:10005000A91D0008A91D0008A91D0008A91D000868
:1000600000000000A91D0008A91D0008A91D000826
:10007000A91D0008A91D0008A91D00080000000016
:10008000A91D00080000000000000000A91D0008D4
:1000900000000000A91D0008A91D0008A91D0008F6
:1000A00000000000A91D000800000000A91D0008B4
:1000B0000000000000000000000000000000000040
:1000C00010B5064C2378002B07D1054B002B02D02E
:1000D000044800E000BF0123237010BD2000002071
:1000E00000000000041E0008044B10B5002B03D0D4
:1000F0000349044800E000BF10BDC04600000000F6
:1001000024000020041E0008002243088B4274D300
:1001100003098B425FD3030A8B4244D3030B8B4208
:1001200028D3030C8B420DD3FF22090212BA030C11
:100130008B4202D31212090265D0030B8B4219D3F2
:1001400000E0090AC30B8B4201D3CB03C01A524112
:10015000830B8B4201D38B03C01A5241430B8B425A
:1001600001D34B03C01A5241030B8B4201D30B0343
:10017000C01A5241C30A8B4201D3CB02C01A52416A
:10018000830A8B4201D38B02C01A5241430A8B422D
:1001900001D34B02C01A5241030A8B4201D30B0216
:1001A000C01A5241CDD2C3098B4201D3CB01C01A30
:1001B000524183098B4201D38B01C01A524143093A
:1001C0008B4201D34B01C01A524103098B4201D328
:1001D0000B01C01A5241C3088B4201D3CB00C01A95
:1001E000524183088B4201D38B00C01A524143080D
:1001F0008B4201D34B00C01A5241411A00D2014632
:10020000524110467047FFE701B5002000F006F8A4
:1002100002BDC0460029F7D076E770477047C04658
:1002200080B500AF074B074A126810210A431A60D5
:10023000002000F009F801F04DFD00231800BD4634
:1002400080BDC0460020024090B583B000AF78600A
:10025000144B1C68144B1B781900FA239800FFF705
:1002600053FF030019002000FFF74EFF03001800A2
:1002700000F0E2F8031E01D001230FE07B68032B9E
:100280000BD8796801235B420022180000F0BEF809
:10029000064B7A681A60002300E001231800BD466F
:1002A00003B090BD1C0000200400002000000020CE
:1002B00080B500AF054B1B781A00054B1B68D218A0
:1002C000034B1A60C046BD4680BDC04604000020F6
:1002D0004000002080B500AF024B1B681800BD46EF
:1002E00080BDC04640000020B0B582B000AF020023
:1002F0003960FB1D1A70FB1D1B787F2B28D82F4CF3
:10030000FB1D1B785BB29B082C49FA1D127852B278
:100310009208C03292005258F91D09780800032152
:100320000140C900FF2088400100C94311403A68DC
:100330009201FF201040FA1D1278150003222A4076
:10034000D200904002000A43C0339B001A5131E0B2
:100350001B4CFB1D1B781A000F231340083B990808
:10036000174AFB1D1B7818000F230340083B9B080E
:1003700006339B00D31804331B68FA1D1278100053
:1003800003220240D200FF2090400200D2431A40D4
:100390003B689B01FF201840FB1D1B781D000323B9
:1003A0002B40DB00984003001A438B1D9B00E31891
:1003B00004331A60C046BD4602B0B0BD00E100E0A3
:1003C00000ED00E080B582B000AF78607B68013B53
:1003D0000C4A934201D9012310E00B4B7A68013A91
:1003E0005A6001235B4203211800FFF77DFF064B93
:1003F00000229A60044B07221A6000231800BD46B1
:1004000002B080BDFFFFFF0010E000E080B584B0C7
:1004100000AFB9607A600F23FB18021C1A70BA682B
:100420000F23FB181B785BB211001800FFF75CFF6D
:10043000C046BD4604B080BD80B582B000AF7860D4
:100440007B681800FFF7BEFF03001800BD4602B02E
:1004500080BD000080B586B000AF786039600023B1
:100460007B614FE13B681B6801217A6991400A007A
:100470001340FB60FB68002B00D140E13B685B68E8
:10048000022B03D03B685B68122B23D17B69DA080F
:100490007B6808329200D3583B617B690722134086
:1004A0009B000F229A401300DA433B6913403B61E3
:1004B0003B681A697B6907210B409B009A40130037
:1004C0003A6913433B617B69DA087B680832920022
:1004D0003969D1507B681B683B617B695B000322F3
:1004E0009A401300DA433B6913403B613B685B6809
:1004F00003221A407B695B009A4013003A69134358
:100500003B617B683A691A603B685B68012B0BD0E2
:100510003B685B68022B07D03B685B68112B03D0FC
:100520003B685B68122B30D17B689B683B617B69C1
:100530005B0003229A401300DA433B6913403B619E
:100540003B68DA687B695B009A4013003A691343A1
:100550003B617B683A699A607B685B683B6101221A
:100560007B699A401300DA433B6913403B613B6867
:100570005B681B0901221A407B699A4013003A69A3
:1005800013433B617B683A695A607B68DB683B6177
:100590007B695B0003229A401300DA433B691340F6
:1005A0003B613B689A687B695B009A4013003A693B
:1005B00013433B617B683A69DA603B685A68802381
:1005C0005B05134000D19AE0544B544A92690121D3
:1005D0000A439A61514B9B6901221340BB60BB687F
:1005E0004F4A7B699B0802339B009B583B617B69A8
:1005F000032213409B000F229A401300DA433B6909
:1006000013403B617A689023DB059A4213D07B68E4
:10061000444A93420DD07B68434A934207D07B689B
:10062000424A934201D1032306E0052304E002235A
:1006300002E0012300E000237A6903210A409200CE
:1006400093403A6913433B6135497B699B08023308
:100650009B003A695A50364B1B683B61FB68DA4392
:100660003B6913403B613B685A6880235B0213403F
:1006700003D03A69FB6813433B612D4B3A691A601A
:100680002B4B5B683B61FB68DA433B6913403B6182
:100690003B685A6880239B02134003D03A69FB6889
:1006A00013433B61224B3A695A60214B9B683B6183
:1006B000FB68DA433B6913403B613B685A6880231F
:1006C0005B03134003D03A69FB6813433B61184B4B
:1006D0003A699A60164BDB683B61FB68DA433B6919
:1006E00013403B613B685A6880239B03134003D04F
:1006F0003A69FB6813433B610D4B3A69DA607B69E9
:1007000001337B613B681A687B69DA40131E00D0B5
:10071000A8E6C046BD4606B080BDC04600100240F7
:10072000000001400004004800080048000C004898
:100730000004014080B584B000AF78600A00BB1CA3
:100740001A807B681B69BA1C1288134004D00F23DF
:10075000FB1801221A7003E00F23FB1800221A7005
:100760000F23FB181B781800BD4604B080BD80B570
:1007700082B000AF786008001100BB1C021C1A8018
:100780007B1C0A1C1A707B1C1B78002B04D0BB1C22
:100790001A887B689A6103E0BB1C1A887B689A629E
:1007A000C046BD4602B080BD80B588B000AF78605D
:1007B0007B68002B01D1012302E37B681B680122C7
:1007C000134000D18DE0C44B5B680C221340042B16
:1007D0000ED0C14B5B680C221340082B16D1BE4BC8
:1007E0005A6880235B021A4080235B029A420DD133
:1007F000B94B1A6880239B02134000D170E07B68DC
:100800005B68002B00D06BE00123D9E27B685B685A
:10081000012B07D1B04BB04A1268802149020A432C
:100820001A602FE07B685B68002B0CD1AA4BAA4AA8
:100830001268AA490A401A60A74BA74A1268A84939
:100840000A401A601EE07B685B68052B0ED1A24B44
:10085000A14A12688021C9020A431A609E4B9E4A2F
:100860001268802149020A431A600BE09A4B9A4AA7
:1008700012689A490A401A60974B974A1268984939
:100880000A401A607B685B68002B14D0FFF722FDDA
:100890000300BB6108E0FFF71DFD0200BB69D31A2E
:1008A000642B01D903238BE28B4B1A6880239B02B4
:1008B0001340F0D015E0FFF70DFD0300BB6108E029
:1008C000FFF708FD0200BB69D31A642B01D903238B
:1008D00076E2814B1A6880239B021340F0D100E03E
:1008E000C0467B681B680222134000D169E07A4B46
:1008F0005B680C2213400BD0774B5B680C221340D3
:10090000082B1CD1744B5A6880235B02134016D10C
:10091000714B1B680222134005D07B68DB68012BFA
:1009200001D001234CE26C4A6B4B1B68F8218B43CE
:1009300019007B681B69DB000B43136041E07B6897
:10094000DB68002B24D0644B634A126801210A4300
:100950001A60FFF7BFFC0300BB6108E0FFF7BAFCB9
:100960000200BB69D31A022B01D9032328E25A4B98
:100970001B6802221340F1D0574A574B1B68F821DD
:100980008B4319007B681B69DB000B43136018E085
:10099000514B514A126801218A431A60FFF79AFCB1
:1009A0000300BB6108E0FFF795FC0200BB69D31AA6
:1009B000022B01D9032303E2474B1B680222134099
:1009C000F1D17B681B680822134036D07B68DB6955
:1009D000002B19D0404B404A526A01210A435A6207
:1009E000FFF778FC0300BB6108E0FFF773FC02002F
:1009F000BB69D31A022B01D90323E1E1364B5B6AB1
:100A000002221340F1D018E0334B334A526A0121DD
:100A10008A435A62FFF75EFC0300BB6108E0FFF700
:100A200059FC0200BB69D31A022B01D90323C7E189
:100A3000294B5B6A02221340F1D17B681B680422B8
:100A4000134000D1B6E01F23FB1800221A70224B7E
:100A5000DA6980235B05134011D11F4B1E4AD2690E
:100A6000802149050A43DA611B4BDA6980235B0563
:100A70001340FB60FB681F23FB1801221A70194BFF
:100A80001A6880235B0013401AD1164B154A12686E
:100A9000802149000A431A60FFF71CFC0300BB6178
:100AA00008E0FFF717FC0200BB69D31A642B01D9D9
:100AB000032385E10B4B1A6880235B001340F0D0C1
:100AC0007B689B68012B0FD1034B034A126A0121FB
:100AD0000A431A6236E0C04600100240FFFFFEFFE4
:100AE000FFFFFBFF007000407B689B68002B0CD170
:100AF000B54BB54A126A01218A431A62B24BB24A17
:100B0000126A04218A431A621CE07B689B68052BE9
:100B10000CD1AD4BAC4A126A04210A431A62AA4BAB
:100B2000A94A126A01210A431A620BE0A64BA64A9F
:100B3000126A01218A431A62A34BA34A126A042152
:100B40008A431A627B689B68002B14D0FFF7C2FBB4
:100B50000300BB6109E0FFF7BDFB0200BB69D31ACC
:100B60009A4A934201D903232AE1974B1B6A022236
:100B70001340F0D013E0FFF7ADFB0300BB6109E0C9
:100B8000FFF7A8FB0200BB69D31A904A934201D930
:100B9000032315E18C4B1B6A02221340F0D11F2363
:100BA000FB181B78012B05D1874B874AD2698849EE
:100BB0000A40DA617B681B681022134063D07B68AF
:100BC0005B69012B2AD1804B7F4A526B04210A4377
:100BD0005A637D4B7C4A526B01210A435A63FFF7EB
:100BE00079FB0300BB6108E0FFF774FB0200BB69FF
:100BF000D31A022B01D90323E2E0734B5B6B022271
:100C00001340F1D0704A704B5B6BF8218B43190095
:100C10007B689B69DB000B43536334E07B685B6953
:100C2000053311D1684B684A526B04218A435A63D9
:100C3000654A654B5B6BF8218B4319007B689B69A8
:100C4000DB000B4353631EE05F4B5F4A526B042192
:100C50000A435A635C4B5C4A526B01218A435A63D4
:100C6000FFF738FB0300BB6108E0FFF733FB02002E
:100C7000BB69D31A022B01D90323A1E0524B5B6B52
:100C800002221340F1D17B681B6A002B00D196E051
:100C90004D4B5B680C221340082B00D16AE07B6847
:100CA0001B6A022B4BD1484B474A126849490A40FC
:100CB0001A60FFF70FFB0300BB6108E0FFF70AFBB8
:100CC0000200BB69D31A022B01D9032378E03E4B03
:100CD0001A6880239B041340F0D13B4A3A4BDB6AED
:100CE0000F218B4319007B68DB6A0B43D362364AC2
:100CF000354B5B68384919407B68986A7B685B6A4A
:100D000003430B435360304B2F4A12688021490440
:100D10000A431A60FFF7DEFA0300BB6108E0FFF741
:100D2000D9FA0200BB69D31A022B01D9032347E089
:100D3000254B1A6880239B041340F0D03FE0224BE0
:100D4000214A126823490A401A60FFF7C3FA0300D8
:100D5000BB6108E0FFF7BEFA0200BB69D31A022BA1
:100D600001D903232CE0184B1A6880239B041340FD
:100D7000F0D124E07B681B6A012B01D101231FE025
:100D8000114B5B687B61104BDB6A3B617A698023A6
:100D90005B021A407B685B6A9A420ED13B690F2264
:100DA0001A407B68DB6A9A4207D17A69F0239B0379
:100DB0001A407B689B6A9A4201D0012300E000231D
:100DC0001800BD4608B080BD001002408813000026
:100DD000FFFFFFEFFFFFFFFEFFFFC2FF80B584B004
:100DE00000AF786039607B68002B01D10123B2E04D
:100DF0005B4B1B6801221A403B689A4211D2584B48
:100E0000574A126801218A4311003A680A431A605E
:100E1000534B1B6801221A403B689A4201D00123C0
:100E200099E07B681B680222134015D07B681B6821
:100E30000422134006D04B4B4A4A5268E021C900B5
:100E40000A435A60474A474B5B68F0218B431900BD
:100E50007B689B680B4353607B681B6801221340CF
:100E600040D07B685B68012B07D13E4B1A6880231A
:100E70009B02134014D101236DE07B685B68022B59
:100E800007D1384B1A6880239B04134008D10123F3
:100E900061E0344B1B680222134001D101235AE068
:100EA000304A304B5B6803218B4319007B685B68D9
:100EB0000B435360FFF70EFA0300FB6009E0FFF7F6
:100EC00009FA0200FB68D31A274A934201D9032387
:100ED00041E0244B5B680C221A407B685B689B00F6
:100EE0009A42ECD11E4B1B6801221A403B689A4281
:100EF00011D91B4B1A4A126801218A4311003A6822
:100F00000A431A60164B1B6801221A403B689A423A
:100F100001D001231FE07B681B680422134008D026
:100F2000104A104B5B68114919407B68DB680B4322
:100F3000536000F021F801000A4B5B681B090F2287
:100F400013400B4AD35C0A00DA400A4B1A600020B7
:100F5000FFF77AF900231800BD4604B080BDC046F3
:100F6000002002400010024088130000FFF8FFFF3D
:100F7000B01E00081C00002090B58FB000AF1423F5
:100F8000FB18284A13CA13C312681A603B1D264A6D
:100F900013CA13C312681A600023FB620023BB62EA
:100FA00000237B6300237B6200233B631F4B5B6852
:100FB000FB62FB6A0C221340042B02D0082B03D0E7
:100FC00027E01B4B3B6327E0FB6A9B0C0F2213407F
:100FD0001422BA18D35C7B62144BDB6A0F221340D5
:100FE0003A1DD35CBB62FA6A80235B02134009D0CE
:100FF000B96A0F48FFF788F803001A007B6A534369
:101000007B6303E07B6A0B4A53437B637B6B3B63ED
:1010100002E0074B3B63C0463B6B1800BD460FB078
:1010200090BDC0461C1E00082C1E00080010024087
:1010300000127A0000093D0080B588B000AFF8606A
:10104000B9607A603B600023FB610EE0FB699B00A6
:10105000FA68D3181B6899B29023DB0500221800A8
:10106000FFF785FBFB690133FB61FA697B689A42F4
:10107000ECDB7B68264A944663449B00FA68D318ED
:101080001B6899B29023DB0500221800FFF76FFB65
:101090000023BB6133E0BB699B00FA68D3181B686F
:1010A00099B29023DB0501221800FFF760FBBB69B2
:1010B000002B0EDDBB69164A944663449B00FA6818
:1010C000D3181B6899B29023DB0500221800FFF7A4
:1010D0004EFB3A68BB681100180000F01BF80300D3
:1010E0007B617B69002B07DB7A69BB691100180003
:1010F00000F05EF8030007E0BB690133BB61BA6929
:101100007B689A42C7DBB4E71800BD4608B080BDD3
:10111000FFFFFF3F80B584B000AF786039600023E7
:10112000FB6012E0FB689B007A68D3181B689AB2D8
:101130009023DB0511001800FFF7FCFA031E01D015
:10114000FB6808E0FB680133FB60FA683B689A4281
:10115000E8DB01235B421800BD4604B080BD90B5BA
:1011600087B000AFF860B9607A603B609023DB0520
:10117000012202211800FFF7FAFA1723FC183B6836
:101180007A68B968F868FFF757FF03002370C04614
:10119000BB6804211800FFF7BDFF03000133F7D13E
:1011A0001723FB181B781800BD4607B090BD000040
:1011B00090B587B000AF786039600823FB18084A03
:1011C00013CA13C312681A600823FA187B689B00BD
:1011D000D2183B68D3181B781800BD4607B090BDE5
:1011E0003C1E000890B593B000AFFFF719F800F06F
:1011F00021FA00F063FA1823FB18D14A13CA13C36B
:1012000012681A600823FB18CE4A13CA13C3126867
:101210001A602B23FC180823F9181823F818042344
:101220000422FFF79CFF030023703B1DC64A12688F
:101230001A60C64B00229B5E022B00DDB3E12B231C
:10124000FB181B78232B00D095E000237B6422E061
:101250000823F9181823F81804230422FFF77FFF46
:10126000030019003A1D7B6CD3180A1C1A707B6CA2
:10127000012B07D0022B08D0002B00D008E000F093
:10128000D3FA05E000F0EEFA02E000F001FBC04600
:101290007B6C01337B647B6C032BD9DDAC4A3B1D3B
:1012A0001100180000F08CFA0300012B06D1012078
:1012B00000F024FBA54B00221A805CE0A54A3B1DF0
:1012C0001100180000F07CFA0300012B06D1022067
:1012D00000F014FB9D4B00221A804CE09E4A3B1DFF
:1012E0001100180000F06CFA0300012B06D1032056
:1012F00000F004FB954B00221A803CE0974A3B1D0E
:101300001100180000F05CFA0300012B06D1042044
:1013100000F0F4FA8D4B00221A802CE0904A3B1D1D
:101320001100180000F04CFA0300012B06D1002038
:1013300000F0E4FA854B00221A801CE0834B002267
:101340009B5E9BB201339BB21AB2804B1A807F4BDB
:1013500000229B5E022B07D0032B09D0012B0AD160
:10136000082000F0CBFA06E0092000F0C7FA02E0FE
:10137000062000F0C3FA2B23FB181B782A2B00D081
:1013800047E7052000F0BAFA2A23FB1830221A702A
:101390002A23FC180823F9181823F8180423042218
:1013A000FFF7DDFE0300237000233B6422E00823E7
:1013B000F9181823F81804230422FFF7D0FE0300BD
:1013C00019003A1D3B6CD3180A1C1A703B6C012B98
:1013D00007D0022B08D0002B00D008E000F024FA40
:1013E00005E000F03FFA02E000F052FAC0463B6C24
:1013F00001333B643B6C032BD9DD2A23FB181B789C
:10140000312B2AD1564A3B1D1100180000F0D8F9A3
:10141000031E22D0072000F071FA0023FB6315E0C1
:101420000823F9181823F81804230422FFF797FE5D
:1014300003001900464AFB6BD3180A1C1A70FB6B99
:10144000180000F041FAFB6B0133FB63FB6B032BCD
:10145000E6DD0F2000F052FAE4E02A23FB181B78A7
:10146000322B2AD13E4A3B1D1100180000F0A8F98A
:10147000031E22D0072000F041FA0023BB6315E0D1
:101480000823F9181823F81804230422FFF767FE2D
:10149000030019002F4ABB6BD3180A1C1A70BB6BD0
:1014A000180000F011FABB6B0133BB63BB6B032B5D
:1014B000E6DD0F2000F022FAB4E02A23FB181B78A7
:1014C000332B2AD1264A3B1D1100180000F078F971
:1014D000031E22D0072000F011FA00237B6315E0E1
:1014E0000823F9181823F81804230422FFF737FEFD
:1014F00003001900184A7B6BD3180A1C1A707B6B07
:10150000180000F0E1F97B6B01337B637B6B032BED
:10151000E6DD0F2000F0F2F984E02A23FB181B78A7
:10152000342B3CD10E4A3B1D1100180000F048F945
:10153000031E34D0072000F0E1F900233B6327E0CD
:101540004C1E00085C1E00086C1E00083C000020B9
:10155000080000200C0000201000002014000020D3
:10156000180000200823F9181823F818042304226F
:10157000FFF7F5FD030019002B4A3B6BD3180A1C3B
:101580001A703B6B180000F09FF93B6B01333B6313
:101590003B6B032BE6DD0F2000F0B0F942E00E209C
:1015A00000F0ACF935E62B23FB181B78232B00D079
:1015B0002FE60023FB6222E00823F9181823F8180D
:1015C00004230422FFF7CBFD030019003A1DFB6A38
:1015D000D3180A1C1A70FB6A012B07D0022B08D003
:1015E000002B00D008E000F01FF905E000F03AF908
:1015F00002E000F04DF9C046FB6A0133FB62FB6A72
:10160000032BD9DD094A3B1D1100180000F0D8F862
:101610000300012B00D0FCE50A2000F06FF9044B19
:1016200000221A80F5E5C0461400002018000020B2
:101630003C00002080B590B000AF1023FB181800CC
:1016400030231A00002100F0D5FB3B0018001023C6
:101650001A00002100F0CEFB1023FB1802221A60B2
:101660001023FB180122DA601023FB1810221A61E4
:101670001023FB1800221A621023FB181800FFF732
:1016800093F8031E01D000F01FFB3B0007221A60F5
:101690003B0000225A603B0000229A603B0000227F
:1016A000DA603B0000211800FFF798FB031E01D011
:1016B00000F00AFBC046BD4610B080BD80B588B0C2
:1016C00000AF0C23FB18180014231A00002100F0AF
:1016D00091FB384B374A52698021C9030A435A614A
:1016E000344B5A698023DB031340BB60BB68314B2A
:1016F000304A5269802189020A435A612D4B5A6946
:1017000080239B0213407B607B682B4B00220321CC
:101710001800FFF72CF829499023DB050022180058
:10172000FFF725F80C23FB1803221A600C23FB1883
:1017300001225A600C23FB1800229A600C23FB182C
:101740000022DA600C23FB181B4A19001000FEF778
:1017500081FE0C23FB18194A1A600C23FB18012286
:101760005A600C23FB1800229A600C23FB180022FD
:10177000DA600C23FA189023DB0511001800FEF73D
:1017800069FE0C23FB18F0221A600C23FB180022C0
:101790005A600C23FB1802229A600C23FA1890233B
:1017A000DB0511001800FEF755FEC046BD4608B027
:1017B00080BDC04600100240001400480F06000023
:1017C00080B584B000AF786039600E23FB1800222A
:1017D0001A800023BB6016E0BB687A68D3181A78B9
:1017E000BB683968CB181B789A4209D10E23FB18C5
:1017F00000229B5E9BB201339AB20E23FB181A8023
:10180000BB680133BB60BB68032BE5DD0E23FB180F
:1018100000229B5E042B01D1012300E0002318006D
:10182000BD4604B080BD000080B500AF0C4B012266
:1018300003211800FEF79BFF8023D9009023DB05CE
:1018400001221800FEF793FF802399009023DB0507
:1018500000221800FEF78BFFC046BD4680BDC04683
:101860000014004880B500AF084B00220321180087
:10187000FEF77DFFC023D9009023DB05012218006D
:10188000FEF775FFC046BD4680BDC0460014004847
:1018900080B500AF0B4B012201211800FEF767FF56
:1018A000C023D9009023DB0501221800FEF75FFF5B
:1018B000044B002202211800FEF759FFC046BD4626
:1018C00080BDC0460014004880B582B000AF78608B
:1018D0007B68012B07D0022B08D0002B00D008E03A
:1018E000FFF7A2FF05E0FFF7BDFF02E0FFF7D0FF23
:1018F000C046C046BD4602B080BD000080B582B083
:1019000000AF78607B680F2B00D9D5E17B689A0027
:10191000EB4BD3181B689F46EA4B002202211800AC
:10192000FEF725FF802399009023DB050022180095
:10193000FEF71DFFE34B002201211800FEF717FF01
:101940008023D9009023DB0500221800FEF70FFF4B
:10195000B2E1DC4B002202211800FEF708FF8023D1
:1019600099009023DB0500221800FEF700FFD54BFD
:10197000012201211800FEF7FAFE8023D9009023EE
:10198000DB0500221800FEF7F2FE95E1CD4B0122A7
:1019900002211800FEF7EBFE802399009023DB055F
:1019A00000221800FEF7E3FEC64B002201211800BA
:1019B000FEF7DDFE8023D9009023DB05002218000E
:1019C000FEF7D5FE78E1BF4B012202211800FEF799
:1019D000CEFE802399009023DB0500221800FEF73D
:1019E000C6FEB84B012201211800FEF7C0FE80237D
:1019F000D9009023DB0500221800FEF7B8FE5BE15A
:101A0000B04B002202211800FEF7B1FE802399009E
:101A10009023DB0501221800FEF7A9FEA94B002246
:101A200001211800FEF7A3FE8023D9009023DB05D7
:101A300000221800FEF79BFE3EE1A24B002202218D
:101A40001800FEF794FE802399009023DB05012205
:101A50001800FEF78CFE9B4B012201211800FEF7B7
:101A600086FE8023D9009023DB0500221800FEF7B4
:101A70007EFE21E1934B012202211800FEF777FE42
:101A8000802399009023DB0501221800FEF76FFEEA
:101A90008C4B002201211800FEF769FE8023D9003B
:101AA0009023DB0500221800FEF761FE04E1854B60
:101AB000012202211800FEF75AFE8023990090238C
:101AC000DB0501221800FEF752FE7E4B01220121A8
:101AD0001800FEF74CFE8023D9009023DB0500227E
:101AE0001800FEF744FEE7E0764B002202211800C2
:101AF000FEF73DFE802399009023DB0500221800AD
:101B0000FEF735FE6F4B002201211800FEF72FFE75
:101B10008023D9009023DB0501221800FEF727FE61
:101B2000CAE0684B002202211800FEF720FE802345
:101B300099009023DB0500221800FEF718FE614B88
:101B4000012201211800FEF712FE8023D900902304
:101B5000DB0501221800FEF70AFEADE0594B012219
:101B600002211800FEF703FE802399009023DB0575
:101B700000221800FEF7FBFD524B00220121180045
:101B8000FEF7F5FD8023D9009023DB050122180024
:101B9000FEF7EDFD90E04B4B012202211800FEF70D
:101BA000E6FD802399009023DB0500221800FEF754
:101BB000DEFD444B012201211800FEF7D8FD8023F1
:101BC000D9009023DB0501221800FEF7D0FD73E059
:101BD0003C4B002202211800FEF7C9FD802399002A
:101BE0009023DB0501221800FEF7C1FD354B0022D2
:101BF00001211800FEF7BBFD8023D9009023DB05EF
:101C000001221800FEF7B3FD56E02E4B0022022100
:101C10001800FEF7ACFD802399009023DB0501221C
:101C20001800FEF7A4FD274B012201211800FEF742
:101C30009EFD8023D9009023DB0501221800FEF7CA
:101C400096FD39E01F4B012202211800FEF78FFD9F
:101C5000802399009023DB0501221800FEF787FD01
:101C6000184B002201211800FEF781FD8023D900C6
:101C70009023DB0501221800FEF779FD1CE0114BD3
:101C8000012202211800FEF772FD802399009023A3
:101C9000DB0501221800FEF76AFD0A4B0122012133
:101CA0001800FEF764FD8023D9009023DB05012294
:101CB0001800FEF75CFDC046C046BD4602B080BDC0
:101CC000701E00080014004880B500AFC046BD4635
:101CD00080BD000080B582B000AF0F4B0E4A926904
:101CE00001210A439A610C4B9B69012213407B60DE
:101CF0007B68094B084AD269802149050A43DA61A9
:101D0000054BDA6980235B0513403B603B68C046A6
:101D1000BD4602B080BDC0460010024080B500AF95
:101D2000C046BD4680BD80B500AFFEE780B500AFC0
:101D3000C046BD4680BD80B500AFC046BD4680BD33
:101D400080B500AFFEF7B4FAC046BD4680BD80B591
:101D500000AFC046BD4680BD0D4885460D480E49C2
:101D60000E4A002302E0D458C4500433C4188C42F5
:101D7000F9D30B4A0B4C002301E013600432A2425A
:101D8000FBD3FFF7E4FF00F011F8FFF72BFAFEE7B3
:101D9000001000200000002020000020C81E0008C5
:101DA0002000002044000020FEE7000070B500265F
:101DB0000C4D0D4C641BA410A64209D1002600F066
:101DC00021F80A4D0A4C641BA410A64205D170BD2F
:101DD000B300EB5898470136EEE7B300EB5898474D
:101DE0000136F2E7C01E0008C01E0008C01E000831
:101DF000C41E000803008218934200D17047197076
:101E00000133F9E7F8B5C046F8BC08BC9E467047F8
:0C1E1000F8B5C046F8BC08BC9E46704700
:101E1C0002030405060708090A0B0C0D0E0F10101F
:101E2C000102030405060708090A0B0C0D0E0F101E
:101E3C003132334134353642373839432A30234432
:101E4C000100000002000000040000000800000077
:101E5C001000000020000000400000008000000086
:101E6C003030303018190008521900088C1900084D
:101E7C00C6190008001A00083A1A0008741A00085B
:101E8C00AE1A0008E81A0008221B00085C1B0008A8
:101E9C00961B0008D01B00080A1C0008441C0008F4
:101EAC007E1C00080000000000000000010203047A
:041EBC000607080904
:041EC000E90000082D
:041EC400C100000851
:101EC8000400000001000000313233343536373861
:101ED80030303030313131314341313000127A0005
:0400000508001D5979
:00000001FF
