:020000040800F2
:1000000000100020F5350008B9350008C335000898
:1000100000000000000000000000000000000000E0
:10002000000000000000000000000000C9350008CA
:100030000000000000000000D3350008DD35000896
:100040004536000800000000453600084536000827
:100050004536000845360008453600084536000894
:100060000000000045360008453600084536000807
:1000700045360008453600084536000800000000F7
:10008000453600080000000000000000453600086A
:1000900000000000453600084536000845360008D7
:1000A000000000004536000800000000453600084A
:1000B0000000000000000000000000000000000040
:1000C00010B5064C2378002B07D1054B002B02D02E
:1000D000044800E000BF0123237010BDB4000020DD
:1000E00000000000A0360008044B10B5002B03D020
:1000F0000349044800E000BF10BDC04600000000F6
:10010000B8000020A0360008002243088B4274D3B8
:1001100003098B425FD3030A8B4244D3030B8B4208
:1001200028D3030C8B420DD3FF22090212BA030C11
:100130008B4202D31212090265D0030B8B4219D3F2
:1001400000E0090AC30B8B4201D3CB03C01A524112
:10015000830B8B4201D38B03C01A5241430B8B425A
:1001600001D34B03C01A5241030B8B4201D30B0343
:10017000C01A5241C30A8B4201D3CB02C01A52416A
:10018000830A8B4201D38B02C01A5241430A8B422D
:1001900001D34B02C01A5241030A8B4201D30B0216
:1001A000C01A5241CDD2C3098B4201D3CB01C01A30
:1001B000524183098B4201D38B01C01A524143093A
:1001C0008B4201D34B01C01A524103098B4201D328
:1001D0000B01C01A5241C3088B4201D3CB00C01A95
:1001E000524183088B4201D38B00C01A524143080D
:1001F0008B4201D34B00C01A5241411A00D2014632
:10020000524110467047FFE701B5002000F0F0F8BA
:1002100002BDC0460029F7D076E7704703460B437E
:100220007FD4002243088B4274D303098B425FD3EF
:10023000030A8B4244D3030B8B4228D3030C8B421B
:100240000DD3FF22090212BA030C8B4202D3121201
:10025000090265D0030B8B4219D300E0090AC30BD6
:100260008B4201D3CB03C01A5241830B8B4201D383
:100270008B03C01A5241430B8B4201D34B03C01A6C
:100280005241030B8B4201D30B03C01A5241C30AE4
:100290008B4201D3CB02C01A5241830A8B4201D355
:1002A0008B02C01A5241430A8B4201D34B02C01A3F
:1002B0005241030A8B4201D30B02C01A5241CDD2E4
:1002C000C3098B4201D3CB01C01A524183098B422F
:1002D00001D38B01C01A524143098B4201D34B0118
:1002E000C01A524103098B4201D30B01C01A52417B
:1002F000C3088B4201D3CB00C01A524183088B4202
:1003000001D38B00C01A524143088B4201D34B00EA
:10031000C01A5241411A00D201465241104670475C
:100320005DE0CA0F00D04942031000D34042534061
:1003300000229C4603098B422DD3030A8B4212D321
:10034000FC22890112BA030A8B420CD38901921153
:100350008B4208D3890192118B4204D389013AD090
:10036000921100E08909C3098B4201D3CB01C01A65
:10037000524183098B4201D38B01C01A5241430978
:100380008B4201D34B01C01A524103098B4201D366
:100390000B01C01A5241C3088B4201D3CB00C01AD3
:1003A000524183088B4201D38B00C01A5241D9D2EB
:1003B00043088B4201D34B00C01A5241411A00D26C
:1003C0000146634652415B10104601D34042002B68
:1003D00000D54942704763465B1000D3404201B5E7
:1003E000002000F005F802BD0029F8D016E770479C
:1003F0007047C04680B500AF074B074A126810210E
:100400000A431A60002000F009F803F00DF80023F9
:100410001800BD4680BDC0460020024090B583B0A4
:1004200000AF7860144B1C68144B1B781900FA233A
:100430009800FFF769FE030019002000FFF764FE33
:100440000300180000F004F9031E01D001230FE09F
:100450007B68032B0BD8796801235B4200221800CC
:1004600000F0E0F8064B7A681A60002300E00123F0
:100470001800BD4603B090BDB0000020040000206D
:100480000000002080B500AF054B1B781A00054B1B
:100490001B68D218034B1A60C046BD4680BDC046DB
:1004A00004000020D000002080B500AF024B1B6884
:1004B0001800BD4680BDC046D000002080B584B085
:1004C00000AF7860FFF7F0FF0300BB607B68FB6064
:1004D000FB68013305D0094B1B781A00FB689B1899
:1004E000FB60C046FFF7E0FF0200BB68D21AFB6862
:1004F0009A42F7D3C046BD4604B080BD0400002038
:10050000B0B582B000AF02003960FB1D1A70FB1D50
:100510001B787F2B28D82F4CFB1D1B785BB29B08C8
:100520002C49FA1D127852B29208C03292005258E9
:10053000F91D0978080003210140C900FF20884007
:100540000100C94311403A689201FF201040FA1D92
:100550001278150003222A40D200904002000A437C
:10056000C0339B001A5131E01B4CFB1D1B781A0055
:100570000F231340083B9908174AFB1D1B781800EE
:100580000F230340083B9B0806339B00D31804331A
:100590001B68FA1D1278100003220240D200FF20CF
:1005A00090400200D2431A403B689B01FF20184054
:1005B000FB1D1B781D0003232B40DB00984003002C
:1005C0001A438B1D9B00E31804331A60C046BD46D6
:1005D00002B0B0BD00E100E000ED00E080B582B007
:1005E00000AF78607B68013B0C4A934201D901233C
:1005F00010E00B4B7A68013A5A6001235B420321F9
:100600001800FFF77DFF064B00229A60044B07227B
:100610001A6000231800BD4602B080BDFFFFFF0036
:1006200010E000E080B584B000AFB9607A600F23BD
:10063000FB18021C1A70BA680F23FB181B785BB2F8
:1006400011001800FFF75CFFC046BD4604B080BD36
:1006500080B582B000AF78607B681800FFF7BEFFFE
:1006600003001800BD4602B080BD000080B586B012
:1006700000AF7860396000237B614FE13B681B6805
:1006800001217A6991400A001340FB60FB68002B4E
:1006900000D140E13B685B68022B03D03B685B689C
:1006A000122B23D17B69DA087B6808329200D35879
:1006B0003B617B69072213409B000F229A40130085
:1006C000DA433B6913403B613B681A697B69072148
:1006D0000B409B009A4013003A6913433B617B69CE
:1006E000DA087B68083292003969D1507B681B6850
:1006F0003B617B695B0003229A401300DA433B694C
:1007000013403B613B685B6803221A407B695B00D6
:100710009A4013003A6913433B617B683A691A6057
:100720003B685B68012B0BD03B685B68022B07D0F2
:100730003B685B68112B03D03B685B68122B30D1A0
:100740007B689B683B617B695B0003229A401300D6
:10075000DA433B6913403B613B68DA687B695B00C5
:100760009A4013003A6913433B617B683A699A6087
:100770007B685B683B6101227B699A401300DA4326
:100780003B6913403B613B685B681B0901221A40CF
:100790007B699A4013003A6913433B617B683A696D
:1007A0005A607B68DB683B617B695B0003229A408F
:1007B0001300DA433B6913403B613B689A687B69ED
:1007C0005B009A4013003A6913433B617B683A69C6
:1007D000DA603B685A6880235B05134000D19AE0D9
:1007E000544B544A926901210A439A61514B9B69C7
:1007F00001221340BB60BB684F4A7B699B080233F0
:100800009B009B583B617B69032213409B000F2296
:100810009A401300DA433B6913403B617A689023A6
:10082000DB059A4213D07B68444A93420DD07B6823
:10083000434A934207D07B68424A934201D1032343
:1008400006E0052304E0022302E0012300E0002388
:100850007A6903210A40920093403A6913433B614D
:1008600035497B699B0802339B003A695A50364BE5
:100870001B683B61FB68DA433B6913403B613B68A3
:100880005A6880235B02134003D03A69FB68134324
:100890003B612D4B3A691A602B4B5B683B61FB68EF
:1008A000DA433B6913403B613B685A6880239B02F3
:1008B000134003D03A69FB6813433B61224B3A690A
:1008C0005A60214B9B683B61FB68DA433B691340EC
:1008D0003B613B685A6880235B03134003D03A694D
:1008E000FB6813433B61184B3A699A60164BDB680F
:1008F0003B61FB68DA433B6913403B613B685A68E4
:1009000080239B03134003D03A69FB6813433B6188
:100910000D4B3A69DA607B6901337B613B681A6889
:100920007B69DA40131E00D0A8E6C046BD4606B07B
:1009300080BDC04600100240000001400004004895
:1009400000080048000C00480004014080B584B055
:1009500000AF78600A00BB1C1A807B681B69BA1C58
:100960001288134004D00F23FB1801221A7003E0F1
:100970000F23FB1800221A700F23FB181B78180096
:10098000BD4604B080BD80B582B000AF786008007D
:100990001100BB1C021C1A807B1C0A1C1A707B1CD9
:1009A0001B78002B04D0BB1C1A887B689A6103E07B
:1009B000BB1C1A887B689A62C046BD4602B080BDE7
:1009C00080B588B000AF78607B68002B01D101232F
:1009D00002E37B681B680122134000D18DE0C44B09
:1009E0005B680C221340042B0ED0C14B5B680C22B9
:1009F0001340082B16D1BE4B5A6880235B021A4065
:100A000080235B029A420DD1B94B1A6880239B0266
:100A1000134000D170E07B685B68002B00D06BE076
:100A20000123D9E27B685B68012B07D1B04BB04A48
:100A30001268802149020A431A602FE07B685B68D4
:100A4000002B0CD1AA4BAA4A1268AA490A401A6084
:100A5000A74BA74A1268A8490A401A601EE07B68A3
:100A60005B68052B0ED1A24BA14A12688021C902F6
:100A70000A431A609E4B9E4A1268802149020A432B
:100A80001A600BE09A4B9A4A12689A490A401A6017
:100A9000974B974A126898490A401A607B685B68CE
:100AA000002B14D0FFF700FD0300BB6108E0FFF747
:100AB000FBFC0200BB69D31A642B01D903238BE230
:100AC0008B4B1A6880239B021340F0D015E0FFF790
:100AD000EBFC0300BB6108E0FFF7E6FC0200BB692A
:100AE000D31A642B01D9032376E2814B1A68802341
:100AF0009B021340F0D100E0C0467B681B680222D5
:100B0000134000D169E07A4B5B680C2213400BD094
:100B1000774B5B680C221340082B1CD1744B5A682E
:100B200080235B02134016D1714B1B6802221340D5
:100B300005D07B68DB68012B01D001234CE26C4AB5
:100B40006B4B1B68F8218B4319007B681B69DB002A
:100B50000B43136041E07B68DB68002B24D0644BBF
:100B6000634A126801210A431A60FFF79DFC0300E3
:100B7000BB6108E0FFF798FC0200BB69D31A022BA7
:100B800001D9032328E25A4B1B6802221340F1D0FB
:100B9000574A574B1B68F8218B4319007B681B6928
:100BA000DB000B43136018E0514B514A12680121DE
:100BB0008A431A60FFF778FC0300BB6108E0FFF787
:100BC00073FC0200BB69D31A022B01D9032303E291
:100BD000474B1B6802221340F1D17B681B68082237
:100BE000134036D07B68DB69002B19D0404B404A5C
:100BF000526A01210A435A62FFF756FC0300BB61A7
:100C000008E0FFF751FC0200BB69D31A022B01D99F
:100C10000323E1E1364B5B6A02221340F1D018E076
:100C2000334B334A526A01218A435A62FFF73CFC34
:100C30000300BB6108E0FFF737FC0200BB69D31A71
:100C4000022B01D90323C7E1294B5B6A022213401F
:100C5000F1D17B681B680422134000D1B6E01F234A
:100C6000FB1800221A70224BDA6980235B051340BF
:100C700011D11F4B1E4AD269802149050A43DA610E
:100C80001B4BDA6980235B051340FB60FB681F2365
:100C9000FB1801221A70194B1A6880235B0013405D
:100CA0001AD1164B154A1268802149000A431A606E
:100CB000FFF7FAFB0300BB6108E0FFF7F5FB02005A
:100CC000BB69D31A642B01D9032385E10B4B1A6846
:100CD00080235B001340F0D07B689B68012B0FD111
:100CE000034B034A126A01210A431A6236E0C046E6
:100CF00000100240FFFFFEFFFFFFFBFF00700040FF
:100D00007B689B68002B0CD1B54BB54A126A012158
:100D10008A431A62B24BB24A126A04218A431A62A7
:100D20001CE07B689B68052B0CD1AD4BAC4A126A6A
:100D300004210A431A62AA4BA94A126A01210A43F2
:100D40001A620BE0A64BA64A126A01218A431A6274
:100D5000A34BA34A126A04218A431A627B689B68E8
:100D6000002B14D0FFF7A0FB0300BB6109E0FFF7E5
:100D70009BFB0200BB69D31A9A4A934201D9032311
:100D80002AE1974B1B6A02221340F0D013E0FFF7D1
:100D90008BFB0300BB6109E0FFF786FB0200BB6928
:100DA000D31A904A934201D9032315E18C4B1B6A55
:100DB00002221340F0D11F23FB181B78012B05D111
:100DC000874B874AD26988490A40DA617B681B6889
:100DD0001022134063D07B685B69012B2AD1804BC2
:100DE0007F4A526B04210A435A637D4B7C4A526B03
:100DF00001210A435A63FFF757FB0300BB6108E078
:100E0000FFF752FB0200BB69D31A022B01D903235F
:100E1000E2E0734B5B6B02221340F1D0704A704BDF
:100E20005B6BF8218B4319007B689B69DB000B43EC
:100E3000536334E07B685B69053311D1684B684AC2
:100E4000526B04218A435A63654A654B5B6BF821F8
:100E50008B4319007B689B69DB000B4353631EE0E7
:100E60005F4B5F4A526B04210A435A635C4B5C4AF6
:100E7000526B01218A435A63FFF716FB0300BB61E3
:100E800008E0FFF711FB0200BB69D31A022B01D95E
:100E90000323A1E0524B5B6B02221340F1D17B682C
:100EA0001B6A002B00D196E04D4B5B680C2213406F
:100EB000082B00D16AE07B681B6A022B4BD1484BA0
:100EC000474A126849490A401A60FFF7EDFA0300E1
:100ED000BB6108E0FFF7E8FA0200BB69D31A022BF6
:100EE00001D9032378E03E4B1A6880239B0413400A
:100EF000F0D13B4A3A4BDB6A0F218B4319007B68E8
:100F0000DB6A0B43D362364A354B5B68384919407C
:100F10007B68986A7B685B6A03430B435360304B82
:100F20002F4A1268802149040A431A60FFF7BCFA6D
:100F30000300BB6108E0FFF7B7FA0200BB69D31AF0
:100F4000022B01D9032347E0254B1A6880239B0419
:100F50001340F0D03FE0224B214A126823490A4057
:100F60001A60FFF7A1FA0300BB6108E0FFF79CFAE3
:100F70000200BB69D31A022B01D903232CE0184BC2
:100F80001A6880239B041340F0D124E07B681B6A1D
:100F9000012B01D101231FE0114B5B687B61104BDA
:100FA000DB6A3B617A6980235B021A407B685B6A7B
:100FB0009A420ED13B690F221A407B68DB6A9A4243
:100FC00007D17A69F0239B031A407B689B6A9A4297
:100FD00001D0012300E000231800BD4608B080BD09
:100FE0000010024088130000FFFFFFEFFFFFFFFE2D
:100FF000FFFFC2FF80B584B000AF786039607B68C6
:10100000002B01D10123B2E05B4B1B6801221A4087
:101010003B689A4211D2584B574A126801218A43C1
:1010200011003A680A431A60534B1B6801221A40A8
:101030003B689A4201D0012399E07B681B68022239
:10104000134015D07B681B680422134006D04B4B1D
:101050004A4A5268E021C9000A435A60474A474B4E
:101060005B68F0218B4319007B689B680B435360DE
:101070007B681B680122134040D07B685B68012BB2
:1010800007D13E4B1A6880239B02134014D10123E1
:101090006DE07B685B68022B07D1384B1A688023B0
:1010A0009B04134008D1012361E0344B1B680222EA
:1010B000134001D101235AE0304A304B5B680321D1
:1010C0008B4319007B685B680B435360FFF7ECF9B7
:1010D0000300FB6009E0FFF7E7F90200FB68D31AA1
:1010E000274A934201D9032341E0244B5B680C2239
:1010F0001A407B685B689B009A42ECD11E4B1B68D0
:1011000001221A403B689A4211D91B4B1A4A1268B5
:1011100001218A4311003A680A431A60164B1B6882
:1011200001221A403B689A4201D001231FE07B68EC
:101130001B680422134008D0104A104B5B68114909
:1011400019407B68DB680B43536000F021F8010015
:101150000A4B5B681B090F2213400B4AD35C0A0041
:10116000DA400A4B1A600020FFF758F900231800F4
:10117000BD4604B080BDC0460020024000100240C1
:1011800088130000FFF8FFFF6C3D0008B00000204E
:1011900090B58FB000AF1423FB18284A13CA13C3AD
:1011A00012681A603B1D264A13CA13C312681A60DC
:1011B0000023FB620023BB6200237B6300237B626E
:1011C00000233B631F4B5B68FB62FB6A0C221340EE
:1011D000042B02D0082B03D027E01B4B3B6327E0F6
:1011E000FB6A9B0C0F2213401422BA18D35C7B625B
:1011F000144BDB6A0F2213403A1DD35CBB62FA6AC0
:1012000080235B02134009D0B96A0F48FEF77CFFC8
:1012100003001A007B6A53437B6303E07B6A0B4A3B
:1012200053437B637B6B3B6302E0074B3B63C046EE
:101230003B6B1800BD460FB090BDC046B8360008E5
:10124000C83600080010024000127A0000093D0074
:1012500080B500AF024B1B681800BD4680BDC0467C
:10126000B000002080B500AFFFF7F2FF0100064B91
:101270005B681B0A07221340044AD35CD9400B0069
:101280001800BD4680BDC046001002407C3D0008ED
:1012900080B586B000AF786000233B610023FB601F
:1012A0007B681A6880235B02134000D18EE017230D
:1012B000FB1800221A70574BDA6980235B05134034
:1012C00011D1544B534AD269802149050A43DA614E
:1012D000504BDA6980235B051340BB60BB68172362
:1012E000FB1801221A704C4B1A6880235B001340D4
:1012F0001AD1494B484A1268802149000A431A60B2
:10130000FFF7D2F803003B6108E0FFF7CDF80200D9
:101310003B69D31A642B01D9032376E03E4B1A684C
:1013200080235B001340F0D03A4B1A6AC0239B0025
:101330001340FB60FB68002B34D07B685A68C023E5
:101340009B001A40FB689A422CD0324B1B6A334AEE
:101350001340FB602F4B2F4A126A802149020A4337
:101360001A622C4B2B4A126A2D490A401A62294BE9
:10137000FA681A62FB680122134013D0FFF794F851
:1013800003003B6109E0FFF78FF802003B69D31AC5
:10139000244A934201D9032337E01E4B1B6A0222E1
:1013A0001340F0D01B4A1B4B1B6A1C4919407B6839
:1013B0005B680B4313621723FB181B78012B05D1C5
:1013C000144B144AD26918490A40DA617B681B68D9
:1013D0000122134009D00F4A0E4B1B6B03218B4394
:1013E00019007B689B680B4313637B681B68202292
:1013F000134009D0074A074B1B6B10218B43190080
:101400007B68DB680B43136300231800BD4606B0FE
:1014100080BDC0460010024000700040FFFCFFFF8E
:10142000FFFFFEFF88130000FFFFFFEF80B584B0D1
:1014300000AF78607B68002B01D1012388E07B68D6
:1014400000229A627B685D229B5CDBB2002B07D195
:101450007B685C22002199547B68180002F008F830
:101460007B685D22022199547B681B687A68126848
:10147000126840218A431A607B68DA68E023DB0047
:101480009A4202D90023FB6002E080235B01FB60EB
:101490007B68DA68F0231B019A4208D07B68DA681F
:1014A000E023DB009A4202D07B6800229A627B68CC
:1014B0001B6B002B0CD17B68DA68E023DB009A42BF
:1014C00003D97B6802221A6302E07B6801221A6357
:1014D0007B681B687A6851687A68926811437A68F9
:1014E000126911437A68526911437A6890698022BF
:1014F0009200024011437A68D26911437A68126AF5
:1015000011437A68926A0A431A607B681B687A689A
:101510009269120C042111407A68526A11437A6868
:10152000526B11437A68D2681143FA680A435A60D1
:101530007B681B687A681268D26907490A40DA61D9
:101540007B6800221A667B685D2201219954002382
:101550001800BD4604B080BDFFF7FFFF80B588B01E
:1015600000AFF860B9603B60BB1D1A801F23FB18F9
:1015700000221A70FB685C229B5C012B01D10223C4
:1015800069E1FB685C2201219954FEF78DFF03009D
:10159000BB611623FB18BA1D12881A80FB685D22F6
:1015A0009B5CDBB2012B04D01F23FB1802221A70B4
:1015B00046E1BB68002B03D0BB1D1B88002B04D168
:1015C0001F23FB1801221A703AE1FB685D220321F8
:1015D0009954FB6800221A66FB68BA689A63FB6834
:1015E000BA1D12889A87FB68BA1D1288DA87FB68D1
:1015F00000221A64FB68442200219952FB684622AB
:1016000000219952FB6800221A65FB680022DA6407
:10161000FB689A6880231B029A4208D1FB681B680A
:10162000FA68126812688021C9010A431A60FB68CF
:101630001B681B6840221340402B07D0FB681B68C7
:10164000FA681268126840210A431A60FB68DA6877
:10165000E023DB009A424ED9FB685B68002B04D084
:101660001623FB181B88012B3FD1FB681B68FA6807
:10167000926B1288DA60FB689B6B9A1CFB689A631A
:10168000FB68DB8F9BB2013B9AB2FB68DA872CE0E8
:10169000FB681B689B6802221340022B12D1FB6877
:1016A0001B68FA68926B1288DA60FB689B6B9A1C65
:1016B000FB689A63FB68DB8F9BB2013B9AB2FB68C5
:1016C000DA8712E0FEF7F0FE0200BB69D21A3B682F
:1016D0009A4202D33B68013302D13B68002B04D10C
:1016E0001F23FB1803221A70AAE0FB68DB8F9BB252
:1016F000002BCDD182E0FB685B68002B05D0162360
:10170000FB181B88012B00D073E0FB68DB8F9BB2BA
:10171000012B12D9FB681B68FA68926B1288DA6099
:10172000FB689B6B9A1CFB689A63FB68DB8F9BB220
:10173000023B9AB2FB68DA875BE0FB681B680C33FC
:101740001A00FB689B6B1B781370FB689B6B5A1C21
:10175000FB689A63FB68DB8F9BB2013B9AB2FB6824
:10176000DA8746E0FB681B689B6802221340022B65
:101770002CD1FB68DB8F9BB2012B12D9FB681B6855
:10178000FA68926B1288DA60FB689B6B9A1CFB68A4
:101790009A63FB68DB8F9BB2023B9AB2FB68DA87E5
:1017A00027E0FB681B680C331A00FB689B6B1B78F7
:1017B0001370FB689B6B5A1CFB689A63FB68DB8F9A
:1017C0009BB2013B9AB2FB68DA8712E0FEF76CFE2F
:1017D0000200BB69D21A3B689A4202D33B680133CC
:1017E00002D13B68002B04D11F23FB1803221A707F
:1017F00026E0FB68DB8F9BB2002BB3D1BA69396856
:10180000FB68180000F010F9031E02D0FB682022CC
:101810001A66FB689B68002B0AD100233B61FB68BA
:101820001B68DB683B61FB681B689B683B613B692D
:10183000FB681B6E002B03D01F23FB1801221A70BC
:10184000FB685D2201219954FB685C2200219954B8
:101850001F23FB181B781800BD4608B080BD000090
:1018600080B584B000AFF860B9603B60FB1D1A70B2
:1018700050E03B6801334DD0FEF716FE0200BB6915
:10188000D21A3B689A4202D23B68002B42D1FB68D5
:101890001B68FA6812685268E0218A435A60FB6844
:1018A0005A6882235B009A4213D1FB689A688023AE
:1018B0001B029A4205D0FB689A688023DB009A429B
:1018C00007D1FB681B68FA681268126840218A43D6
:1018D0001A60FB689A6A80239B019A4210D1FB68C8
:1018E0001B68FA681268126814490A401A60FB689B
:1018F0001B68FA6812681268802189010A431A601D
:10190000FB685D2201219954FB685C2200219954F7
:1019100003230FE0FB681B689B68BA681A40BB682A
:10192000D31A5A425341DBB21A00FB1D1B789A426C
:101930009FD100231800BD4604B080BDFFDFFFFF2C
:1019400080B584B000AFF860B9607A603B605CE05D
:10195000BA68C023DB009A4206D17B68002B03D112
:10196000FB681B680C331B783B6801334DD0FEF7D6
:101970009BFD0200BB69D21A3B689A4202D23B68C7
:10198000002B42D1FB681B68FA6812685268E0219C
:101990008A435A60FB685A6882235B009A4213D1DB
:1019A000FB689A6880231B029A4205D0FB689A68FC
:1019B0008023DB009A4207D1FB681B68FA68126833
:1019C000126840218A431A60FB689A6A80239B014F
:1019D0009A4210D1FB681B68FA68126812681149B4
:1019E0000A401A60FB681B68FA6812681268802156
:1019F00089010A431A60FB685D2201219954FB6842
:101A00005C2200219954032308E0FB681B689B6853
:101A1000BA681A407B689A429AD100231800BD46E2
:101A200004B080BDFFDFFFFF80B586B002AFF86075
:101A3000B9607A60BA68C0235901F8687B6800937E
:101A400013000022FFF77CFF031E07D0FB681B6E0C
:101A500020221A43FB681A66032327E0BA68F86855
:101A60007B680093130000228021FFF7F9FE031E1C
:101A700007D0FB681B6E20221A43FB681A660323FB
:101A800014E0BA68C023D900F8687B68009313009B
:101A90000022FFF755FF031E07D0FB681B6E2022B4
:101AA0001A43FB681A66032300E000231800BD46B2
:101AB00004B080BD80B582B000AF78607B68002B39
:101AC00001D1012344E07B685B6F002B07D17B6869
:101AD0007022002199547B68180001F01BFD7B687F
:101AE00024225A677B681B687A6812681268012191
:101AF0008A431A607B68180000F0D8F80300012BB5
:101B000001D1012324E07B685B6A002B03D07B6852
:101B1000180000F039FA7B681B687A68126852680E
:101B20000D490A405A607B681B687A68126892689F
:101B300008218A439A607B681B687A681268126879
:101B400001210A431A607B68180000F0C9FA0300FB
:101B50001800BD4602B080BDFFF7FFFF80B58AB018
:101B600002AFF860B9603B60BB1D1A80FB685B6F19
:101B7000202B00D095E0BB68002B03D0BB1D1B8839
:101B8000002B01D101238DE0FB689A6880235B0163
:101B90009A4209D1FB681B69002B05D1BB68012261
:101BA000134001D001237DE0FB6870229B5C012B78
:101BB00001D1022376E0FB68702201219954FB6871
:101BC0000022DA67FB6821225A67FEF76DFC0300EA
:101BD0007B61FB68BA1D502112885A52FB68BA1DFE
:101BE000522112885A52FB689A6880235B019A42FC
:101BF00008D1FB681B69002B04D10023FB61BB6883
:101C0000BB6103E0BB68FB610023BB612DE07A6927
:101C1000F8683B68009313000022802100F0A6FAC8
:101C2000031E01D003233DE0FB69002B0BD1FB68B1
:101C30001B68BA691288D205D20D92B21A85BB69A7
:101C40000233BB6108E0FB681B68FA69127892B244
:101C50001A85FB690133FB61FB6852229B5A9BB2D8
:101C6000013B99B2FB6852229952FB6852229B5A5F
:101C70009BB2002BCBD17A69F8683B6800931300C4
:101C80000022402100F072FA031E01D0032309E074
:101C9000FB6820225A67FB687022002199540023B8
:101CA00000E002231800BD4608B080BD80B588B0B2
:101CB00000AF78600023BB611723FB1800221A7065
:101CC0007B689A687B681B691A437B685B691A4367
:101CD0007B68DB6913433B617B681B687A68126829
:101CE0001268A24911403A690A431A607B681B686E
:101CF0007A68126852689E4911407A68D2680A432D
:101D00005A607B689B693B617B681B6A3A69134335
:101D10003B617B681B687A6812689268954911403C
:101D20003A690A439A60944B1B6B03221340012BC0
:101D30000FD004D3022B11D0032B05D013E01F23A7
:101D4000FB1800221A7012E01F23FB1802221A70DF
:101D50000DE01F23FB1804221A7008E01F23FB1854
:101D600008221A7003E01F23FB1810221A70C046C5
:101D70007B68DA6980231B029A4200D080E01F232F
:101D8000FB181B78022B1CD002DC002B05D04BE08B
:101D9000042B25D0082B37D046E0FFF763FA030069
:101DA000FB60FB685A007B685B685B08D2187B6845
:101DB0005B6819001000FEF7A7F903009BB2BB6136
:101DC00037E07B685B685B086C4A9A187B685B68E5
:101DD00019001000FEF798F903009BB2BB6128E0E0
:101DE000FFF7D6F90300FB60FB685A007B685B686D
:101DF0005B08D2187B685B6819001000FEF784F955
:101E000003009BB2BB6114E07B685B685B088022C7
:101E100052029A187B685B6819001000FEF774F98B
:101E200003009BB2BB6104E01723FB1801221A7068
:101E3000C046BB690F2B1ED9BB69514A93421AD8C1
:101E4000BB699AB20A23FB180F218A431A80BB6927
:101E50005B089BB20722134099B20A23FB180A229F
:101E6000BA1812880A431A807B681B680A22BA18BB
:101E70001288DA606CE01723FB1801221A7067E001
:101E80001F23FB181B78022B1BD002DC002B05D074
:101E900049E0042B24D0082B35D044E0FFF7E2F9C9
:101EA0000300FB607B685B685A08FB68D2187B689C
:101EB0005B6819001000FEF727F903009BB2BB61B5
:101EC00036E07B685B685B082E4A9A187B685B6823
:101ED00019001000FEF718F903009BB2BB6127E060
:101EE000FFF756F90300FB607B685B685A08FB68E4
:101EF000D2187B685B6819001000FEF705F9030033
:101F00009BB2BB6114E07B685B685B0880221202B5
:101F10009A187B685B6819001000FEF7F5F803005B
:101F20009BB2BB6104E01723FB1801221A70C04664
:101F3000BB690F2B08D9BB69114A934204D87B684F
:101F40001B68BA69DA6003E01723FB1801221A70D4
:101F50007B6800221A667B6800225A661723FB18EA
:101F60001B781800BD4608B080BDC046F369FFFF6E
:101F7000FFCFFFFFFFF4FFFF001002400024F4003A
:101F8000FFFF000000127A0080B582B000AF7860D9
:101F90007B685B6A012213400AD07B681B687A6801
:101FA00012685268454911407A68926A0A435A6039
:101FB0007B685B6A022213400AD07B681B687A68E0
:101FC000126852683E4911407A68D26A0A435A60E0
:101FD0007B685B6A042213400AD07B681B687A68BE
:101FE00012685268374911407A68126B0A435A6086
:101FF0007B685B6A082213400AD07B681B687A689A
:1020000012685268304911407A68526B0A435A602C
:102010007B685B6A102213400AD07B681B687A6871
:1020200012689268294911407A68926B0A439A6053
:102030007B685B6A202213400AD07B681B687A6841
:1020400012689268224911407A68D26B0A439A60FA
:102050007B685B6A402213401BD07B681B687A68F0
:10206000126852681B4911407A68126C0A435A6020
:102070007B681A6C80235B039A420AD17B681B68D9
:102080007A6812685268144911407A68526C0A439F
:102090005A607B685B6A802213400AD07B681B68A9
:1020A0007A68126852680D4911407A68926C0A4346
:1020B0005A60C046BD4602B080BDC046FFFFFDFF6E
:1020C000FFFFFEFFFFFFFBFFFF7FFFFFFFEFFFFFB5
:1020D000FFDFFFFFFFFFEFFFFFFF9FFFFFFFF7FFA8
:1020E00080B586B002AF78607B680022DA67FEF7C1
:1020F000DBF90300FB607B681B681B680822134048
:10210000082B0DD1FA68802399037868164B009349
:102110001300002200F02AF8031E01D003231FE061
:102120007B681B681B6804221340042B0DD1FA68DE
:102130008023D90378680C4B00931300002200F031
:1021400015F8031E01D003230AE07B6820225A679A
:102150007B6820229A677B687022002199540023B3
:102160001800BD4604B080BDFFFFFF0180B584B0FC
:1021700000AFF860B9603B60FB1D1A705DE0BB69A1
:1021800001335AD0FEF790F902003B68D21ABB69BE
:102190009A4202D8BB69002B1BD1FB681B68FA6806
:1021A000126812682F490A401A60FB681B68FA68B7
:1021B0001268926801218A439A60FB6820225A675C
:1021C000FB6820229A67FB68702200219954032340
:1021D00043E0FB681B681B68042213402DD0FB689A
:1021E0001B68DA6980231B011A4080231B019A4275
:1021F00023D1FB681B68802212011A62FB681B68EE
:10220000FA681268126817490A401A60FB681B686E
:10221000FA681268926801218A439A60FB6820225A
:102220005A67FB6820229A67FB682022DA67FB68FE
:1022300070220021995403230FE0FB681B68DB69BF
:10224000BA681A40BB68D31A5A425341DBB21A002B
:10225000FB1D1B789A4292D000231800BD4604B0A3
:1022600080BDC0465FFEFFFF80B582B000AF7860E2
:102270003960144B1B687A689A4203DB114B1B6868
:10228000013B7B60104B1B683A689A4203DB0E4BA4
:102290001B68013B3B600D4B7A681A600C4B3A6837
:1022A0001A600C4B1B687A685A4310000A4B1B6873
:1022B0003A685343190000F023FAC046BD4602B005
:1022C00080BDC046D4000020E4010020D8000020DA
:1022D000DC00002000040020FC03002080B582B058
:1022E00000AF786009E07B681B78180000F016F8F2
:1022F00000F05CF87B6801337B607B681B78002B07
:10230000F1D1054B1B68002B01D000F079F9C046D4
:10231000BD4602B080BDC0460404002080B586B032
:1023200000AF0200FB1D1A70FB1D1B785BB2002B77
:102330002FDBFB1D1B781F2B07D8184B1B68FA1DC2
:102340001278D2009B187B610CE0FB1D1B785BB2FE
:10235000002B07DB124B1B68FA1D1278203AD200C3
:102360009B187B610F4B1B683B610023FB600AE0FD
:102370003B695A1C3A617A69511C796112781A706A
:10238000FB680133FB60084B1B68FA689A42EFDB7D
:1023900000E0C046BD4606B080BDC0460C0400202B
:1023A000F8030020F00300200004002080B500AFF7
:1023B000134B1B685A1C124B1A60114B1A68114BB5
:1023C0001B689A4207DB0E4B00221A600E4B1B68FB
:1023D0005A1C0D4B1A600C4B1A680C4B1B689A4226
:1023E00002DB094B00221A60054B1A68064B1B687A
:1023F00019001000FFF738FFC046BD4680BDC0463B
:10240000D8000020D4000020DC000020E4010020DF
:1024100080B500AF00F009F800F02AF800F086F867
:1024200000F0C8F8C046BD4680BD80B500AF0223AD
:102430009BB20121180000F04DF908239BB2012145
:10244000180000F047F910239BB20121180000F09A
:1024500041F904239BB20121180000F03BF901234C
:102460009BB20021180000F035F9C046BD4680BD82
:1024700080B582B000AF214B08221A60204B0822A1
:102480001A60204B204A1A60204B214A1A60002310
:102490007B6007E01E4A7B68D31800221A707B68B5
:1024A00001337B607B68FF2BF4DD144B1B68190044
:1024B0008020FDF7B3FE03001A00164B1A60104B84
:1024C0001B6819002020FDF7A9FE03001A00124B1B
:1024D0001A6000210020FFF7C7FE104B01221A707E
:1024E0000F4B104A1A60002000F040F90E4B0122F9
:1024F0001A60C046BD4602B080BDC0460004002040
:10250000FC030020F8030020EC3900080C04002034
:10251000E0000020D4000020E40100200804002096
:10252000F4030020EC3C00080404002080B500AF58
:1025300002239BB20021180000F0CCF810239BB2BC
:102540000021180000F0C6F80120FDF7B7FFAE200B
:1025500000F0ACF804239BB20021180000F0BAF898
:1025600004239BB20121180000F0B4F88D2000F084
:102570009DF8142000F09AF8D92000F097F8F12087
:1025800000F094F808239BB20021180000F0A2F894
:10259000A12000F08BF8C82000F088F8DA2000F0C5
:1025A00085F8202000F082F8AF2000F07FF8C046C8
:1025B000BD4680BD80B500AF00F006F800F020F801
:1025C000C046BD4680BD000080B582B000AF0A4B5A
:1025D0003B6000237B6007E03B685A1C3A600022A6
:1025E0001A707B6801337B607B68044A9342F3DD99
:1025F000C046BD4602B080BDEC010020FF010000D6
:1026000080B582B000AF184B3B6000237B6024E0B4
:1026100002239BB20021180000F05CF8222000F099
:1026200045F87B68DBB2180000F040F8002000F0AD
:102630003DF8102000F03AF802239BB20121180067
:1026400000F048F83B681900802000F00FF83B6864
:1026500080333B607B6801337B607B68032BD7DD75
:10266000C046BD4602B080BDEC01002080B584B0FC
:1026700000AF786039600023FB600CE001235B420F
:10268000396809480122FEF769FF3B6801333B6066
:10269000FB680133FB60FA687B689A42EEDBC04658
:1026A000BD4604B080BDC0469C04002080B582B009
:1026B00000AF0200FB1D1A7001235B42F91D0448A4
:1026C0000122FEF74BFFC0461800BD4602B080BD98
:1026D0009C04002080B582B000AF0200BB1D1A80B0
:1026E0007B1D0A1C1A707B1D1A78BB1D198890234C
:1026F000DB051800FEF747F9C046BD4602B080BDB5
:1027000080B582B000AF786039607B68180000F057
:10271000E5F803007B603B68180000F0F2F8030066
:102720003B600D4B7A681A600C4B3A681A603B6844
:10273000002B00DA0733DB10DA017B68D218084B74
:10274000D218084B1A603B6807221A40064B1A60E1
:10275000C046BD4602B080BDEC030020E801002069
:10276000EC010020F00300201004002080B582B0AE
:1027700000AF7860144B7A681A607B68012B0CD02C
:1027800002DC002B05D014E0022B0AD0032B0CD066
:102790000FE00E4B0E4A1A6011E00C4B0D4A1A6006
:1027A0000DE00A4B0C4A1A6009E0084B0B4A1A600C
:1027B00005E0054B00221A60044B054A1A60C0462A
:1027C000BD4602B080BDC04614040020180400209D
:1027D000E12700082F28000869280008A32800081E
:1027E00090B583B000AF040008001100FB1D221C4F
:1027F0001A70BB1D021C1A707B1D0A1C1A707B1DEF
:102800001B785BB2DB435BB2BA1D127852B2134045
:102810005AB2FB1D791D1B7809780B40DBB25BB205
:1028200013435BB2DBB21800BD4603B090BD90B558
:1028300083B000AF040008001100FB1D221C1A70B9
:10284000BB1D021C1A707B1D0A1C1A70FB1D7A1D11
:102850001B7812781340DAB2BB1D1B781343DBB22E
:102860001800BD4603B090BD90B583B000AF040022
:1028700008001100FB1D221C1A70BB1D021C1A70DF
:102880007B1D0A1C1A70FB1D7A1D1B7812781340E1
:10289000DBB2BA1D12781340DBB21800BD4603B09C
:1028A00090BD90B583B000AF040008001100FB1D7F
:1028B000221C1A70BB1D021C1A707B1D0A1C1A7088
:1028C000FB1D7A1D1B7812781340DAB2BB1D1B78F2
:1028D0005340DBB21800BD4603B090BD80B582B056
:1028E00000AF78607B68002B01DA00237B607B6897
:1028F0007F2B01DD7F237B607B681800BD4602B023
:1029000080BD80B582B000AF78607B68002B01DAB3
:1029100000237B607B681F2B01DD1F237B607B68AE
:102920001800BD4602B080BD80B582B000AF7860AF
:102930007B681800FDF7C2FDC0461800BD4602B016
:1029400080BD000080B582B000AF786039603B6820
:10295000012B0FD1134B7A68D200D3581800114ABB
:102960007B68DB00D31804331B689BB2012219007B
:10297000FEF709F83B68002B0FD10A4B7A68D200AA
:10298000D3581800074A7B68DB00D31804331B6850
:102990009BB200221900FDF7F6FFC0461800BD46A5
:1029A00002B080BD0800002080B582B000AF786022
:1029B000094B7A68D200D3581800074A7B68DB00BD
:1029C000D31804331B689BB21900FDF7BFFFC04644
:1029D0001800BD4602B080BD0800002080B588B058
:1029E00000AF1423FB1802221A801223FB180322C3
:1029F0001A801023FB1809221A800E23FB180A22C2
:102A00001A800C23FB1800221A800A23FB180022CC
:102A10001A801E23FB1800221A801C23FB18002298
:102A20001A801A23FB1800221A801823FB18002290
:102A30001A800823FB180E221A80BB1D0C221A8054
:102A40001623FB1800221A80FDF7D4FC00F076FB59
:102A500000F042FC00F0D2FB00F00EFCFFF7D8FCC7
:102A600000F050FB1823FB1800229B5E5A001A232B
:102A7000FB1800215B5ED3185A001C23FB180021B1
:102A80005B5ED3189BB2DB189AB21E23FB181B881F
:102A9000D3189AB20C23FB181A800E23FB180022BD
:102AA0009B5E1800FFF780FF02001E23FB181A80B0
:102AB0001023FB1800229B5E1800FFF775FF020031
:102AC0001C23FB181A801223FB1800229B5E18009F
:102AD000FFF76AFF02001A23FB181A801423FB1861
:102AE00000229B5E1800FFF75FFF02001823FB180F
:102AF0001A801823FB1800229B5E5A001A23FB1829
:102B000000215B5ED3185A001C23FB1800215B5E7A
:102B1000D3189BB2DB189AB21E23FB181B88D3185C
:102B20009AB20A23FB181A800C23FA180A23FB18FE
:102B30000021525E00215B5E9A4207D11623FB18EA
:102B400000221A803220FFF7EFFE06E01623FB1862
:102B500001221A803220FFF7E7FE0C23FB180A221D
:102B6000BA1812881A803220FFF7DEFE0C23FB18F9
:102B700000229B5E052B17D1BB1D00229B5E01210D
:102B80001800FFF7DFFEFA235B001800FFF7CCFE0A
:102B9000BB1D00229B5E00211800FFF7D3FEFA2325
:102BA0005B001800FFF7C0FE1623FB1800229B5E97
:102BB000002B00DC56E70C23FB1800229B5E0F2B3A
:102BC00000D989E29A00EE4BD3181B689F46FFF7A5
:102BD000F1FC00210020FFF747FBEA4B1800FFF74C
:102BE0007DFB01210020FFF73FFBE74B1800FFF7BB
:102BF00075FBFA23DB001800FFF796FEFFF7DAFCFF
:102C000000F080FA69E2E149E14864233422FEF7EA
:102C1000A5FFFFF7CFFC00210020FFF725FBDD4BD0
:102C20001800FFF75BFB01210020FFF71DFBDA4BCB
:102C30001800FFF753FB0823FB1800229B5E0121BD
:102C40001800FFF77FFED54B1800FFF76DFEFFF76A
:102C5000B1FC00F057FA0823FB1800229B5E00210C
:102C60001800FFF76FFE38E2CD49C94864233422CB
:102C7000FEF774FFFFF79EFC00210020FFF7F4FA37
:102C8000C44B1800FFF72AFB01210020FFF7ECFAE4
:102C9000C44B1800FFF722FB0823FB1800229B5EA1
:102CA00001211800FFF74EFEBC4B1800FFF73CFE59
:102CB000FFF780FC00F026FA0823FB1800229B5E39
:102CC00000211800FFF73EFE07E2B749B048642331
:102CD0003422FEF743FFFFF76DFC00210020FFF7D1
:102CE000C3FAAC4B1800FFF7F9FA01210020FFF7F7
:102CF000BBFAAE4B1800FFF7F1FA0823FB180022CD
:102D00009B5E01211800FFF71DFEA44B1800FFF782
:102D10000BFEFFF74FFC00F0F5F90823FB1800222B
:102D20009B5E00211800FFF70DFED6E1A0499848F0
:102D300064233422FEF712FFFFF73CFC0021002041
:102D4000FFF792FA934B1800FFF7C8FA0121002011
:102D5000FFF78AFA974B1800FFF7C0FA0823FB1811
:102D600000229B5E01211800FFF7ECFD8B4B180041
:102D7000FFF7DAFDFFF71EFC00F0C4F90823FB188B
:102D800000229B5E00211800FFF7DCFDA5E1FFF7A4
:102D900011FC00210020FFF767FA874B1800FFF7AE
:102DA0009DFA01210020FFF75FFA844B1800FFF71E
:102DB00095FAFA23DB001800FDF780FBFFF7FAFB1A
:102DC00000210020FFF750FA7D4B1800FFF786FA2C
:102DD0007C496F4864232022FEF7C0FE7DE17A49DA
:102DE0006B4864232822FEF7B9FEFFF7E3FB0021BE
:102DF0000020FFF739FA754B1800FFF76FFA022130
:102E00000020FFF731FA724B1800FFF767FABB1D7D
:102E100000229B5E01211800FFF794FD0823FB1898
:102E200000229B5E01211800FFF78CFD55E1FFF7A2
:102E3000C1FB00210020FFF717FA664B1800FFF7CF
:102E40004DFA4AE1FFF7B6FB00210020FFF70CFA2C
:102E5000614B1800FFF742FA01210020FFF704FA46
:102E60005E4B1800FFF73AFA02210020FFF7FCF949
:102E70005B4B1800FFF732FABB1D00229B5E01215D
:102E80001800FFF75FFD454B1800FFF74DFDBB1D18
:102E900000229B5E00211800FFF754FDFFF78AFB1C
:102EA00000F030F919E1FFF785FB00210020FFF762
:102EB000DBF9494B1800FFF711FA01210020FFF759
:102EC000D3F9464B1800FFF709FA02210020FFF75B
:102ED000CBF9444B1800FFF701FABB1D00229B5EA3
:102EE00001211800FFF72EFD2C4B1800FFF71CFDE9
:102EF000BB1D00229B5E00211800FFF723FDFFF79A
:102F000059FB00F0FFF8E8E0FFF754FB0021002038
:102F1000FFF7AAF9344B1800FFF7E0F9FA23DB00BA
:102F20001800FFF701FD00F0EDF8BB1D00229B5ECD
:102F300000211800FFF706FD0823FB1800229B5E06
:102F400000211800FFF7FEFCC7E004210020FFF776
:102F50008BF9264B1800FFF7C1F9BEE004210020D1
:102F6000FFF782F9224B1800FFF7B8F9B5E004210A
:102F70000020FFF779F91F4B1800FFF7AFF9ACE01D
:102F80002C3D0008D8360008E83600080437000851
:102F90001C040020383700084C370008B80B00002C
:102FA0005C37000890370008A0370008D4370008C5
:102FB000E4370008183800082838000838380008B6
:102FC000403800086438000884380008AC3800082D
:102FD000CC380008DC380008F43800080439000850
:102FE0001839000828390008383900084439000821
:102FF000483900084C390008FFF7DCFA00210020AE
:10300000FFF732F9384B1800FFF768F9022100206A
:10301000FFF72AF9354B1800FFF760F9032100206C
:10302000FFF722F9324B1800FFF758F9BB1D0022B9
:103030009B5E01211800FFF785FC2E4B1800FFF75F
:1030400073FCBB1D00229B5E00211800FFF77AFC79
:1030500000F058F841E02849284864231A22FEF776
:103060007DFDFFF7A7FA00210020FFF7FDF8244BB4
:103070001800FFF733F9FA239B001800FFF754FC00
:103080000823FB1800229B5E01211800FFF75AFC61
:10309000C820FFF749FC0823FB1800229B5E002193
:1030A0001800FFF74FFCC820FFF73EFC0823FB1871
:1030B00000229B5E01211800FFF744FCC820FFF7A7
:1030C00033FC0823FB1800229B5E00211800FFF749
:1030D00039FC00F017F800E0C046FA239B00180006
:1030E000FFF722FCBEE4C046503900086C390008E6
:1030F00078390008B80B0000843900081C0400204F
:10310000A039000880B500AFFFF754FA0021002075
:10311000FFF7AAF8074B1800FFF7E0F8012100209D
:10312000FFF7A2F8044B1800FFF7D8F8C046BD46D9
:1031300080BDC046B4390008C839000880B594B0D5
:1031400000AF2023FB18180030231A00002100F0E4
:103150009FFA1023FB18180010231A00002100F01A
:1031600097FA3B00180010231A00002100F090FA93
:103170002023FB1802221A602023FB180122DA60A8
:103180002023FB1810221A612023FB1800221A6248
:103190002023FB181800FDF713FC031E01D000F0DC
:1031A0003DF91023FB1807221A601023FB18002298
:1031B0005A601023FB1800229A601023FB1800228B
:1031C000DA601023FB1800211800FDF713FF031E1F
:1031D00001D000F023F93B0001221A603B000022DD
:1031E0009A603B001800FEF753F8031E01D000F070
:1031F00015F9C046BD4614B080BD000080B500AFD3
:103200001B4B1C4A1A601A4B822252005A60184B00
:1032100000229A60164BE022D200DA60144B0222A0
:103220001A61134B01225A61114B802292009A615C
:103230000F4B0022DA610E4B00221A620C4B002267
:103240005A620B4B00229A62094B0722DA62084B42
:1032500000221A63064B00225A63054B1800FEF742
:10326000E5F8031E01D000F0D9F8C046BD4680BD88
:103270009C0400200030014080B500AF144B154A7B
:103280001A60134B962292015A60114B00229A60E9
:103290000F4B0022DA600E4B00221A610C4B0C22FD
:1032A0005A610B4B00229A61094B0022DA61084BEC
:1032B00000221A62064B00225A62054B1800FEF7E4
:1032C000F9FB031E01D000F0A9F8C046BD4680BD41
:1032D0001C0400200038014080B588B000AF0C23EA
:1032E000FB18180014231A00002100F0D1F9484BF4
:1032F000474A52698021C9030A435A61444B5A69BB
:103300008023DB031340BB60BB68414B404A5269DA
:10331000802189020A435A613D4B5A6980239B02EE
:1033200013407B607B683A4B394A52698021C9025D
:103330000A435A61364B5A698023DB0213403B60D3
:103340003B689023DB05002247211800FDF71BFB9B
:10335000304B002202211800FDF715FB0C23FB184F
:1033600003221A600C23FB1800225A600C23FB185E
:1033700000229A600C23FB18274A19001000FDF761
:1033800075F90C23FB1847221A600C23FB18012245
:103390005A600C23FB1800229A600C23FB180022B1
:1033A000DA600C23FA189023DB0511001800FDF7F2
:1033B0005DF90C23FB1818221A600C23FB1800225D
:1033C0005A600C23FB1800229A600C23FA189023F1
:1033D000DB0511001800FDF749F90C23FB18022248
:1033E0001A600C23FB1801225A600C23FB180022E0
:1033F0009A600C23FB180022DA600C23FB18054AA4
:1034000019001000FDF732F9C046BD4608B080BD76
:1034100000100240000400480014004880B500AFCE
:10342000C046BD4680BD000080B582B000AF0F4BE6
:103430000E4A926901210A439A610C4B9B69012251
:1034400013407B607B68094B084AD269802149059B
:103450000A43DA61054BDA6980235B0513403B6060
:103460003B68C046BD4602B080BDC0460010024069
:1034700080B58AB000AF78601423FB1818001423BD
:103480001A00002100F004F97B681B681F4A934270
:1034900037D11F4B1E4A9269802149010A439A6124
:1034A0001B4B9A6980235B0113403B613B69184BBE
:1034B000174A5269802189020A435A61144B5A699A
:1034C00080239B021340FB60FB681423FB18A0229F
:1034D0001A601423FB1802225A601423FB180022DE
:1034E0009A601423FB180322DA601423FB180022CD
:1034F0001A611423FA189023DB0511001800FDF758
:10350000B5F8C046BD460AB080BDC0460030014097
:103510000010024080B58AB000AF78601423FB1819
:10352000180014231A00002100F0B2F87B681B6811
:103530001F4A934238D11F4B1E4A92698021C9010C
:103540000A439A611B4B9A698023DB0113403B615C
:103550003B69184B174A5269802189020A435A6114
:10356000144B5A6980239B021340FB60FB681423B1
:10357000FB18C022D2001A601423FB1802225A60E2
:103580001423FB1800229A601423FB180322DA602C
:103590001423FB1801221A611423FA189023DB0567
:1035A00011001800FDF762F8C046BD460AB080BDA4
:1035B000003801400010024080B500AFC046BD4653
:1035C00080BD80B500AFFEE780B500AFC046BD4608
:1035D00080BD80B500AFC046BD4680BD80B500AFA0
:1035E000FCF750FFC046BD4680BD80B500AFC04669
:1035F000BD4680BD0D4885460D480E490E4A002344
:1036000002E0D458C4500433C4188C42F9D30B4A96
:103610000B4C002301E013600432A242FBD3FFF7FE
:10362000E4FF00F011F8FFF7D9F9FEE700100020E1
:1036300000000020B40000208C3D0008B4000020F1
:1036400000050020FEE7000070B500260C4D0D4C73
:10365000641BA410A64209D1002600F021F80A4DEF
:103660000A4C641BA410A64205D170BDB300EB58F0
:1036700098470136EEE7B300EB5898470136F2E77A
:10368000843D0008843D0008843D0008883D000812
:1036900003008218934200D1704719700133F9E793
:1036A000F8B5C046F8BC08BC9E467047F8B5C046A1
:0836B000F8BC08BC9E467047FF
:1036B80002030405060708090A0B0C0D0E0F10106B
:1036C8000102030405060708090A0B0C0D0E0F106A
:1036D80053656E6861204D65737472650000000063
:1036E800646967697461646120636F6D20202020BC
:1036F8007375636573736F21000000005449545556
:103708004C41523A20526F647269676F0A415041C6
:103718005254414D454E544F3A20310A456E747209
:10372800616461204C696265726164610A0A000023
:10373800454E5452414441204C494245524144412E
:10374800000000004150415254414D454E544F2015
:1037580031000000544954554C41523A205468698C
:10376800657272790A4150415254414D454E544F49
:103778003A20320A456E7472616461204C69626550
:10378800726164610A0A00004150415254414D453A
:103798004E544F2032000000544954554C41523A7F
:1037A800204761627269656C610A41504152544117
:1037B8004D454E544F3A20330A456E747261646128
:1037C800204C696265726164610A0A004150415285
:1037D80054414D454E544F20330000005449545530
:1037E8004C41523A204761627269656C0A41504106
:1037F8005254414D454E544F3A20340A456E747226
:10380800616461204C696265726164610A0A000042
:103818004150415254414D454E544F203400000010
:103828005245444546494E4943414F2044450000CE
:1038380053454E4841000000446967697465206F2C
:10384800207573756172696F6520612073656E6894
:1038580061206D6573747265000000004120534556
:103868004E484120455354412053454E444F205221
:1038780045444546494E4944410A0A005349535470
:10388800454D41205452415641444F2C20434F4D01
:10389800504152454341204120454E5452414441F4
:1038A8000A0A000033204552524F5320202020207E
:1038B8002020202053495354454D4120545241560D
:1038C80041444F0045737065726520706F7274656E
:1038D80069726F004469676974652061206E6F764C
:1038E8006120202073656E686100000053454E48D2
:1038F8004120494E434F525245544100446967693B
:103908007465206E6F76616D656E746500000000E9
:10391800486120322074656E746174697661730041
:10392800486120312074656E7461746976610000A5
:103938004445535452415641444F00002A00000068
:103948002A2A00002A2A2A0053454E4841204F556A
:10395800205553554152494F494E434F52524554B1
:103968004F0000004F7065726163616F00000000D6
:10397800496E76616C69646100000000412053451E
:103988004E484120464F49205245444546494E49F4
:1039980044410A0A0000000053656E6861207265A0
:1039A800646566696E69646100000000434F4E44B7
:1039B8004F4D494E494F20444544454C00000000B6
:1039C8005072657373696F6E65202320652020200F
:1039D800646967697465207375612073656E6861D1
:1039E8000000000000000000000000000000005F70
:1039F800000000000000030003000000643C26648F
:103A08003C2624002649497F4949320042251208AC
:103A18002452210020504E5522582800000000034F
:103A28000000000000001C224100000000000041CE
:103A3800221C00000015150E0E1515000008083E82
:103A480008080000000000503000000000080808C6
:103A58000808000000000040000000004020100896
:103A680004020100003E4141413E00000000417F48
:103A78004000000000426151496E000000224149A7
:103A880049360000001814127F1000000027494929
:103A980049710000003C4A49487000000043211168
:103AA8000D0300000036494949360000000609495F
:103AB800291E000000000012000000000000005253
:103AC8003000000000000814142200000014141430
:103AD80014141400000022141408000000020159F4
:103AE800050200003E415D554D512E00407C4A09BB
:103AF8004A7C4000417F4949494936001C224141DE
:103B080041412200417F414141221C00417F4949F6
:103B18005D416300417F49091D0103001C224149A1
:103B2800493A0800417F0808087F41000041417F69
:103B380041410000304041413F010100417F080CF4
:103B480012614100417F414040406000417F420C8A
:103B5800427F4100417F420C117F01001C224141FC
:103B680041221C00417F4909090906000C12212144
:103B780061524C00417F0909196946006649494963
:103B8800494933000301417F41010300013F41409E
:103B9800413F0100010F3140310F0100011F611445
:103BA800611F010041413608364141000103447854
:103BB80044030100436151494543610000007F41CE
:103BC80041000000010204081020400000004141AB
:103BD8007F00000000040201010204000040404090
:103BE80040404000000102000000000000344A4A42
:103BF8004A3C400000413F4848483000003C4242AF
:103C08004224000000304848493F4000003C4A4AEE
:103C18004A2C00000000487E490900000026494956
:103C2800493F0100417F4804447840000000447D3A
:103C380040000000000040443D000000417F101893
:103C4800244242000040417F40400000427E027C06
:103C5800027E4000427E4402427C4000003C4242D8
:103C6800423C000000417F49090906000006090995
:103C7800497F410000427E440202040000644A4A2F
:103C88004A36000000043F444420000000023E4041
:103C980040227E40020E3240320E0200021E62189E
:103CA800621E020042621408146242000143453851
:103CB80005030100004662524A46620000000836C9
:103CC800410000000000007F0000000000000041EB
:103CD800360800000018080810101800AA55AA5540
:103CE800AA55AA550000000000000000FFFFFFFFD2
:103CF800FFFFFFFFAA55AA55AA55AA55114400115E
:103D080044001144924524924524924549922449FD
:103D1800922449922211220022112200112211001C
:103D280011221100CE2B0008062C0008682C000870
:103D3800CA2C00082C2D00088E2D0008DE2D000846
:103D48002E2E0008442E0008A62E0008082F000872
:103D58004A2F00085C2F00086E2F0008F82F000873
:103D680056300008000000000000000001020304B3
:0C3D780006070809000000000102030417
:043D8400E90000084A
:043D8800C10000086E
:103D8C000400000001000000000000000000000022
:103D9C0000000000000000000014004801000000BA
:103DAC0000140048020000000000000000000000A9
:103DBC0000000000000000000000004801000000AE
:103DCC000000004802000000000000480400000051
:103DDC00000000480800000000000048100000002F
:103DEC0000000048200000000000004840000000D7
:103DFC0000000048800000000004004802000000A1
:103E0C0000000000000000000000000000000000A6
:103E1C000000004800020000000000480004000000
:103E2C000000004800200000000000480040000096
:043E3C0000127A00F6
:04000005080035F5C5
:00000001FF
